S01100004672616D65576F726B2E7372656385
S11300000C948A030C94A7030C94A7030C94A703E1
S11300100C94A7030C94A7030C94A7030C94A703B4
S11300200C94A7030C94A7030C94A7030C948507C2
S11300300C94A7030C94A7030C94A7030C94A70394
S11300400C94A7030C94A7030C9460080C94A703C6
S11300500C94A7030C94A7030C94A7030C94A70374
S11300600C94A7030C94A7030C94A7030C94A70364
S11300700C94A7030C94A7030C94A7030C94A70354
S11300800C94A7030C94A7030C94A7030C94A70344
S11300900C94A7030C94A7030C94A7030C94A70334
S11300A00C94A7030C94A7030C94A7030C94A70324
S11300B00C94A703341CC51C3D1C5C1C861C9A1C98
S11300C0AE1C6E616E00696E660000407A10F35AD1
S11300D000A0724E18090010A5D4E80000E8764884
S11300E0170000E40B54020000CA9A3B000000E130
S11300F0F505000080969800000040420F000000C3
S1130100A08601000000102700000000E8030000A2
S113011000006400000000000A000000000001006C
S1130120000000002C76D888DC674F0823DFC1DF8D
S1130130AE59E1B1B796E5E3E453C63AE651997690
S113014096E8E6C28426EB898C9B62ED407C6FFCCA
S1130150EFBC9C9F40F2BAA56FA5F490055A2AF70C
S11301605C936B6CF9676DC11BFCE0E40D47FEF515
S113017020E6B500D0ED902E03009435770500807D
S1130180841E080000204E0A000000C80C333333DC
S1130190330F986E12831141EF8D2114893BE6557C
S11301A016CFFEE6DB18D1844B381BF77C1D901D5F
S11301B0A4BBE424203284725E228100C9F124ECC1
S11301C0A1E53D27000000005C000C000C7C287CAD
S11301D07C447C241048285408000C003844004413
S11301E03800201008103810804000101010004013
S11301F000201008384438007C00645448445428D3
S11302001C107C4C542438542004740C28542808A2
S113021054380050008050001028442828284428CE
S113022010045408384C5C7814787C5428384444BE
S11302307C44387C54447C14043844347C107C0062
S11302407C0020403C7C106C7C40407C087C7C041E
S11302507C7C447C7C14083844787C14684854249E
S1130260047C047C407C3C403C7C207C6C106C1CFA
S1130270601C64544C7C4400081020447C00080436
S113028008808080040800000000000000004F0087
S1130290000007000700147F147F14242A7F2A1209
S11302A02313086462364955222000050300000028
S11302B01C2241000041221C0014083E08140808B6
S11302C03E08085030000000080808080800606074
S11302D0000020100804023E5149453E00427F4080
S11302E00042615149462141454B311814127F1097
S11302F027454545393C4A494930017109050336CA
S113030049494936064949291E0036360000005637
S1130310360000081422410014141414140041225D
S1130320140802015109063E415D551E7E1111114A
S11303307E7F494949363E414141227F4141221C49
S11303407F494949417F090909013E4149497A7F69
S11303500808087F00417F41002040413F017F0899
S11303601422417F404040407F020C027F7F0408FA
S1130370107F3E4141413E7F090909063E4151211A
S11303805E7F09192946264949493201017F010145
S11303903F4040403F1F2040201F3F4038403F63C4
S11303A01408146307087008076151494543007F26
S11303B041410002040810200041417F0004020171
S11303C002044040404040000003050020545454BF
S11303D0787F444444383844444444384444447F53
S11303E0385454541804047E0505085454543C7F6E
S11303F00804047800447D40002040443D007F1000
S113040028440000417F40007C047C04787C08047C
S1130410047838444444387C14141408081414141C
S11304207C7C08040400485454542404043F444489
S11304303C4040207C1C2040201C3C4030403C443C
S1130440281028440C5050503C4464544C44083602
S11304504141000000770000004141360808082AA5
S11304601C08081C2A0808FFFFFFFFFF000000000B
S113047000000000065F5F06000000070700070792
S113048000147F7F147F7F14242E6B6B3A12004676
S11304906630180C6662307A4F5D377A4804070379
S11304A000000000001C3E634100000041633E1C4C
S11304B00000082A3E1C1C3E2A08083E3E0808008C
S11304C00080E06000000008080808080800000038
S11304D060600000006030180C0603013E7F715913
S11304E04D7F3E40427F7F404000627359496F66B2
S11304F000226349497F3600181C16537F7F50271A
S11305006745457D39003C7E4B49793000030371D2
S1130510790F0700367F49497F3600064F49693F06
S11305201E00000066660000000080E66600000011
S1130530081C3663410000242424242424000041A0
S113054063361C0800020351590F06003E7F415DCB
S11305505D1F1E7C7E13137E7C00417F7F49497F93
S1130560361C3E6341416322417F7F41633E1C410F
S11305707F7F495D4163417F7F491D01031C3E63C9
S1130580415173727F7F08087F7F0000417F7F4164
S11305900000307040417F3F01417F7F081C77633A
S11305A0417F7F414060707F7F0E1C0E7F7F7F7F85
S11305B0060C187F7F1C3E6341633E1C417F7F49CC
S11305C0090F061E3F21717F5E00417F7F09197F5D
S11305D066266F4D5973320003417F7F4103007FCC
S11305E07F40407F7F001F3F60603F1F007F7F3060
S11305F018307F7F43673C183C6743074F78784F38
S11306000700476371594D6773007F7F41410000C4
S11306100103060C1830600041417F7F0000080C84
S11306200603060C08808080808080800000030719
S1130630040000207454543C7840417F3F4848787B
S113064030387C44446C2800307848493F7F403837
S11306507C54545C1800487E7F4903020038BCA4D3
S1130660A4FC7800417F7F08047C7800447D7D40B1
S1130670000060E08080FD7D00417F7F10386C4485
S113068000417F7F400000787C1C381C7C787C7C97
S113069004047C7800387C44447C380000FCFCA4CE
S11306A0243C18183C24A4F8FC84447C784C041C96
S11306B018485C545474240000043E7F4424003CD5
S11306C07C40403C7C401C3C60603C1C003C7C709A
S11306D038707C3C446C3810386C443CBCA0A0FCA2
S11306E07C004C64745C4C640008083E7741410013
S11306F0000000777700004141773E0808000203BC
S11307000103020301FF8181818181FF0E9F91B169
S1130710FB4A000011241FBECFEFD8E0DEBFCDBFDF
S113072012E0A0E0B1E0E4E1F9E402C005900D922A
S1130730A636B107D9F727E0A6E6B2E001C01D92BC
S1130740A437B207E1F70E945A1B0C9488240C9436
S11307500000CF93DF93CDB7DEB727970FB6F89499
S1130760DEBF0FBECDBF9D838C837F836E838E815E
S11307709F8189599F4FFC018081898381E08A830D
S11307801B8246C08C819D81FC0140818981882F18
S113079090E02E813F81820F931FFC0180814817D6
S11307A0A1F581E08B8381E08A831DC08A81882F33
S11307B090E02C813D81820F931FFC01408189814F
S11307C0282F30E08A81882F90E0820F931F2E819A
S11307D03F81820F931FFC018081481709F01B821F
S11307E08A818F5F8A838A81882F90E02C813D8162
S11307F0820F931FFC0180818823C1F68B8188239B
S113080021F08981882F90E00FC089818F5F8983CF
S11308108E819F818C599F4FFC019081898198170B
S113082008F0B0CF8FEF9FEF27960FB6F894DEBF96
S11308300FBECDBFDF91CF910895CF93DF9300D04A
S113084000D0CDB7DEB79C838B831A8219821A82BB
S113085019820DC02B813C8189819A81820F931F5B
S1130860FC01108289819A8101969A838983898106
S11308709A818436910570F38B819C818C599F4FAA
S1130880FC0110828B819C818A599F4FFC0110824C
S11308908B819C818B599F4FFC0110828B819C81A1
S11308A089599F4FFC01108200000F900F900F9008
S11308B00F90DF91CF910895CF93DF93CDB7DEB73B
S11308C081E091E00E9441080000DF91CF910895FA
S11308D0CF93DF9300D000D0CDB7DEB79A8389835E
S11308E07C836B8386E091E00E94410882E20E944F
S11308F0260889819A810E94410882E20E94260882
S113090080E191E00E94410882E20E9426088B81E6
S11309109C810C960E94410882E20E94260882E192
S113092091E00E94410800000F900F900F900F90EB
S1130930DF91CF910895CF93DF9300D000D000D002
S1130940CDB7DEB79A8389837C836B835E834D83C3
S113095085E191E00E94410882E20E9426088D818F
S11309609E814A960E94410882E20E94260880E104
S113097091E00E94410882E20E94260889819A81BE
S11309800E94410882E20E94260880E191E00E94D0
S1130990410882E20E9426088B819C8106960E946F
S11309A0410882E20E94260889E291E00E944108FF
S11309B082E20E94260882E20E94260882E191E0F7
S11309C00E944108000026960FB6F894DEBF0FBEC1
S11309D0CDBFDF91CF910895CF93DF9300D0CDB7F2
S11309E0DEB79A8389838FE291E00E94410882E214
S11309F00E94260889819A810C960E94410882E20D
S1130A000E9426088EE391E00E94410800000F90A6
S1130A100F90DF91CF910895CF93DF9300D000D052
S1130A20CDB7DEB79A8389837C836B8388E491E0B6
S1130A300E94410882E20E94260889819A81829656
S1130A400E94410882E20E94260880E191E00E940F
S1130A50410882E20E9426088B819C81C7960E94ED
S1130A60410882E20E94260886E591E00E9441083E
S1130A7000000F900F900F900F90DF91CF91089589
S1130A80CF93DF9300D0CDB7DEB79A8389838DE50A
S1130A9091E00E94410882E20E94260889819A819D
S1130AA08D960E94410882E20E9426088BE691E01E
S1130AB00E94410800000F900F90DF91CF9108959C
S1130AC0CF93DF93CDB7DEB788EB90E028E9FC0144
S1130AD020830000DF91CF910895CF93DF9300D05E
S1130AE0CDB7DEB78A838CEB90E0FC0110828CEBEF
S1130AF090E024EAFC01208300008CEB90E0FC01F0
S1130B0080818823D4F789EB90E0FC018081882FD1
S1130B1090E0887F9927089711F081E020C08BEB43
S1130B2090E02A81FC0120838CEB90E024E8FC0116
S1130B30208300008CEB90E0FC0180818823D4F7B3
S1130B4089EB90E0FC018081887F898389818831E9
S1130B5029F08981803411F081E001C080E00F9098
S1130B600F90DF91CF910895CF93DF931F92CDB76C
S1130B70DEB789838BEB90E02981FC0120838CEB29
S1130B8090E024E8FC01208300008CEB90E0FC0161
S1130B9080818823D4F789EB90E0FC018081882F41
S1130BA090E0887F9927889711F081E001C080E068
S1130BB00F90DF91CF910895CF93DF93CDB7DEB738
S1130BC08CEB90E024ECFC01208300008CEB90E0A3
S1130BD0FC0180818823D4F78BEB90E0FC018081B9
S1130BE0DF91CF910895CF93DF93CDB7DEB78CEB30
S1130BF090E024E8FC01208300008CEB90E0FC01F1
S1130C0080818823D4F78BEB90E0FC018081DF9115
S1130C10CF910895CF93DF93CDB7DEB728970FB662
S1130C20F894DEBF0FBECDBF8B836C835E834D8390
S1130C3038872F838B810E946D05882311F081E012
S1130C4023C08C810E94B4051A82198213C02D819D
S1130C503E8189819A81820F931FFC0180810E94C9
S1130C60B405882311F081E00FC089819A8101962F
S1130C709A83898329813A818F8198852817390736
S1130C8030F30E94A80680E028960FB6F894DEBFE1
S1130C900FBECDBFDF91CF9108950F931F93CF93D4
S1130CA0DF93CDB7DEB728970FB6F894DEBF0FBE3B
S1130CB0CDBF8B836C835E834D8338872F838B8179
S1130CC00E946D05882311F081E037C08C810E9459
S1130CD0B4058B8181600E946D05882311F081E049
S1130CE02CC01A82198210C02D813E8189819A817B
S1130CF08901080F191F0E94DC05F801808389818E
S1130D009A8101969A8389838F8198859C012150C9
S1130D10310989819A818217930730F38F819885ED
S1130D2001972D813E818901080F191F0E94F30547
S1130D30F80180830E94A80680E028960FB6F894F4
S1130D40DEBF0FBECDBFDF91CF911F910F910895EC
S1130D50CF93DF93CDB7DEB78CEB90E024E9FC01B1
S1130D6020830000DF91CF9108950F93CF93DF93F9
S1130D7000D000D01F92CDB7DEB789836A834B833E
S1130D802C830D8384E290E024E230E0F901208199
S1130D90622F23E0422F50E021E030E002C0220F16
S1130DA0331F4A95E2F7722F25E0422F50E021E0ED
S1130DB030E002C0220F331F4A95E2F7272B262B7F
S1130DC0FC01208384E290E024E230E0F9012081F8
S1130DD0622F24E0422F50E021E030E002C0220FD5
S1130DE0331F4A95E2F720952623FC01208385E2F0
S1130DF090E025E230E0F9012081622F24E0422FC7
S1130E0050E021E030E002C0220F331F4A95E2F7A0
S1130E10262BFC0120838CE490E031E029812323FC
S1130E20222F30E0220F331F22953295307F322754
S1130E30207F3227422F406431E02A812323222F4E
S1130E4030E022953295307F3227207F3227422BA3
S1130E5033E02B812323222F30E0220F331F220F74
S1130E60331F242B43E03C813423232BFC012083B8
S1130E708DE490E031E02D812323FC0120830000E8
S1130E800F900F900F900F900F90DF91CF910F91D3
S1130E900895CF93DF9300D0CDB7DEB78A838EE475
S1130EA090E02A81FC01208300008DE490E0FC01A5
S1130EB080818823D4F78EE490E0FC0180818983CB
S1130EC089810F900F90DF91CF910895CF93DF9395
S1130ED000D0CDB7DEB79A83898381E890E022E021
S1130EE0FC01208388E890E029813A81FC01318368
S1130EF020838FE690E022E0FC01208378940000B8
S1130F000F900F90DF91CF9108951F920F92009050
S1130F105F000F9211248F939F93EF93FF93CF93CE
S1130F20DF93CDB7DEB784E890E0FC011182108234
S1130F30809166028F5F80936602809167028F5F63
S1130F408093670280916802909169020196909360
S1130F5069028093680280916D028F5F80936D02B5
S1130F6080916A028F5F80936A0280916B029091F4
S1130F706C02019690936C0280936B020000DF91E7
S1130F80CF91FF91EF919F918F910F9000925F000D
S1130F900F901F901895CF93DF9300D01F92CDB779
S1130FA0DEB79A8389836B838B81882349F185EC2F
S1130FB090E029813A81232F3327FC01208384EC9C
S1130FC090E02981FC01208380EC90E020EC30E06B
S1130FD0F90120812260FC01208381EC90E021EC66
S1130FE030E0F90120812869FC01208382EC90E043
S1130FF022EC30E0F90120812660FC0120831FC02F
S113100085EC90E029813A81232F3327FC0120834A
S113101084EC90E02981FC01208381EC90E021ECB8
S113102030E0F90120812869FC01208382EC90E002
S113103022EC30E0F90120812660FC0120830000CD
S11310400F900F900F90DF91CF910895CF93DF937E
S11310501F92CDB7DEB78983000080EC90E0FC01DD
S11310608081882F90E080729927892BB1F386ECD8
S113107090E02981FC01208300000F90DF91CF9143
S11310800895CF93DF9300D0CDB7DEB79A838983D9
S11310900BC089819A81FC0180810E942608898184
S11310A09A8101969A83898389819A81FC0180813E
S11310B0882379F700000F900F90DF91CF91089566
S11310C01F920F9200905F000F9211242F933F9371
S11310D08F939F93EF93FF93CF93DF93CDB7DEB7B7
S11310E08091D402882F90E026EC30E0F901208131
S11310F080599D4FFC0120838091D402843628F0CE
S11311001092D40281E08093D6028091D402882F79
S113111090E080599D4FFC0180818A3071F4809168
S1131120D402882F90E0019780599D4FFC01808163
S11311308D3019F481E08093D90281E08093D50247
S11311408091D4028F5F8093D4020000DF91CF910D
S1131150FF91EF919F918F913F912F910F9000926A
S11311605F000F901F9018950F931F93CF93DF93F9
S1131170CDB7DEB727970FB6F894DEBF0FBECDBF4D
S11311809F838E838E819F81FC0180859185292F89
S11311902F938F9380E791E0892F8F9380E791E0DD
S11311A08F93CE0101969F938F930E9408240F90F2
S11311B00F900F900F900F900F9000E713E025E031
S11311C043E751E063E080E00E94E91900E713E09F
S11311D025E0CE010196AC0164E080E00E94E919AB
S11311E0000027960FB6F894DEBF0FBECDBFDF9187
S11311F0CF911F910F9108950F931F93CF93DF9376
S1131200CDB7DEB762970FB6F894DEBF0FBECDBF81
S11312109A8B898B89899A89FC0184819581A6811D
S1131220B7812B2F2F932A2F2F93292F2F938F930F
S11312308DE791E0892F8F938DE791E08F93CE0115
S113124001969F938F930E9408248DB79EB70896AA
S11312500FB6F894DEBF0FBECDBF00E713E025E064
S113126042E851E060E080E00E94E91900E713E001
S113127025E0CE010196AC0161E080E00E94E9190D
S1131280000062960FB6F894DEBF0FBECDBFDF91AB
S1131290CF911F910F9108950F931F93CF93DF93D5
S11312A0CDB7DEB780E793E00E94CB1800E713E0E8
S11312B025E046E951E060E080E00E94E919000081
S11312C0DF91CF911F910F910895CF92DF92EF920A
S11312D0FF920F931F93CF93DF9300D01F92CDB74C
S11312E0DEB79B838A838A819B81FC01C480D5807D
S11312F0E680F7808A819B81FC0180859185CC0101
S1131300A0E0B0E0BC01CD010E94001EDC01CB01D5
S11313109C01AD01C701B6010E94531D8823ACF4A2
S113132081E0898300E713E025E049EA51E066E0C3
S11313308FE30E94E91900E713E025E048EC51E04F
S113134066E08FE30E94E91913C0198200E713E0F5
S113135025E049EA51E066E08FE30E94E91900E7DD
S113136013E025E04BEC51E066E08FE30E94E919BD
S113137089810F900F900F90DF91CF911F910F9162
S1131380FF90EF90DF90CF9008950F931F93CF932A
S1131390DF931F92CDB7DEB780916C0390916D03FC
S11313A0A0916E03B0916F0302E613E028E333E0EB
S11313B042E353E0BC01CD010E94B51689838981C3
S11313C00F90DF91CF911F910F9108950F931F9369
S11313D0CF93DF9300D01F92CDB7DEB79B838A8370
S11313E08A819B810E94BF0D898389818823F9F4B6
S11313F08A819B812A813B81890121E030E040E0A0
S113140050E0BC0180ED0E94200A898389818823F1
S113141071F48A819B81FC018081883531F48A8151
S11314209B810E94530E898302C08CEF898389813A
S11314300F900F900F90DF91CF911F910F9108950E
S11314400F931F93CF93DF93CDB7DEB72A970FB6D1
S1131450F894DEBF0FBECDBF8A837C836B832D835C
S11314603E834F8358871A87098789859A850E9406
S1131470BF0D898389818823B1F58B819C81892B58
S113148091F189859A85DC0111968C91882319F450
S11314908A8180688A8389859A85DC011596ED9115
S11314A0FC91169789859A85DC0112962D913C91C1
S11314B013978D819E81AF81B8856B817C81890171
S11314C09C01AD018A810995282F89859A85FC01A3
S11314D0248389859A85DC0114968C91882329F0CC
S11314E08EEF898302C08FEF898389812A960FB694
S11314F0F894DEBF0FBECDBFDF91CF911F910F9146
S11315000895FF920F931F93CF93DF93CDB7DEB768
S113151068970FB6F894DEBF0FBECDBF988B8F8748
S11315207A8B698B2B8B3C8B4D8B5E8B188F0F8B3F
S11315308B899C89AD89BE890597A105B10540F0C9
S113154084E090E0A0E0B0E08B8B9C8BAD8BBE8BF5
S11315508F89988D0E94BF0D89838981882309F022
S1131560A4C08F859889892B09F49FC089899A8999
S1131570892B09F49AC08B899C89AD89BE89892BF2
S11315808A2B8B2B09F48EC089899A89DC018C9172
S11315908F838F89988DFC018181882331F51E8288
S11315A016C08E81882F90E02F853889820F931F73
S11315B02E81222F30E04F855889240F351FD90101
S11315C02C912F77FC0120838E818F5F8E838E81F7
S11315D0282F30E040E050E08B899C89AD89BE899A
S11315E0281739074A075B07E0F28B899C89AD8984
S11315F0BE890297A105B10500F18B899C89AD894B
S1131600BE8949895A89BE01695F7F4FEF85F88990
S11316108C019D01CF010E94EB0D8B899C89AD89C2
S1131620BE89880F991FAA1FBB1F0197A109B10981
S11316308A839B83AC83BD8308C08B899C89AD89D5
S1131640BE898A839B83AC83BD838F89988DDC019B
S11316501796ED91FC9118978F89988DDC0112965D
S11316602D913C9113978F859889DC01FC908A8198
S11316709B81AC81BD81BE01695F7F4F89019C0163
S1131680AD018F2D0995282F8F89988DFC01248316
S11316908F89988DDC0114968C91882349F08EEF04
S11316A0898306C08DEF898303C08FEF898301C0CE
S11316B00000898168960FB6F894DEBF0FBECDBFD7
S11316C0DF91CF911F910F91FF9008950F931F9376
S11316D0CF93DF9300D000D01F92CDB7DEB79D83A8
S11316E08C8380EE8A8386EB8B832C813D81BE01C3
S11316F06D5F7F4FCE010296890121E030E040E02A
S113170050E00E94810A898389810F900F900F9085
S11317100F900F90DF91CF911F910F9108950F9328
S11317201F93CF93DF93CDB7DEB727970FB6F89407
S1131730DEBF0FBECDBF9D838C837F836E831A82F1
S11317401B828C819D81892B09F447C02E813F81A6
S1131750CE010296890122E030E040E050E0BC0175
S113176084EF0E94200A898389818823C1F58A81B4
S1131770282F2295269527708C819D81FC0120833A
S11317808A81882F90E08C719927959587959595F6
S11317908795282F8C819D81FC0121838B81282FA3
S11317A02295269527708C819D81FC0122838B8153
S11317B0882F90E08C7199279595879595958795B5
S11317C0282F8C819D81FC0124838B81282F2170FB
S11317D08C819D81FC01258302C08FEF89838981DF
S11317E027960FB6F894DEBF0FBECDBFDF91CF9121
S11317F01F910F910895CF93DF9300D000D0CDB700
S1131800DEB79A8389837C836B832B813C818981B6
S11318109A81A901BC0180E00E944B0F0F900F90A8
S11318200F900F90DF91CF9108950F931F93CF9353
S1131830DF9300D000D000D0CDB7DEB79C838B837C
S11318407E836D838B819C81892B49F12D813E811F
S1131850CE010296890121E030E040E050E0BC0175
S113186083EF0E94200A898389818823D1F48A81A5
S1131870882F90E0887099279595879595958795F9
S113188095958795282F8B819C81FC0120838A81E3
S1131890282F21708B819C81FC01218302C08FEF52
S11318A08983898126960FB6F894DEBF0FBECDBF1B
S11318B0DF91CF911F910F910895CF93DF9300D0C3
S11318C000D000D0CDB7DEB78A837C836B835E8380
S11318D04D832D813E818B819C81A901BC018A812C
S11318E00E944B0F8983898126960FB6F894DEBF38
S11318F00FBECDBFDF91CF9108950F931F93CF9368
S1131900DF93CDB7DEB763970FB6F894DEBF0FBE93
S1131910CDBF998B888B7B8B6A8B26E0CE01029698
S1131920FC01322F11923A95E9F728E0CE0108968E
S1131930FC01322F11923A95E9F788899989892B0C
S113194041F12A893B89CE010296890126E030E0E3
S113195040E050E0BC0187EF0E94200A898389811E
S11319608823C9F49E01285F3F4FCE010296B90136
S11319700E94941089838981882369F44A895B8948
S113198028893989CE010896B9010E94D70C898328
S113199002C08FEF8983898163960FB6F894DEBF06
S11319A00FBECDBFDF91CF911F910F910895CF93BB
S11319B0DF93CDB7DEB727970FB6F894DEBF0FBE1F
S11319C0CDBF9B838A837D836C835F834E838E81AB
S11319D09F810E94BF0D89838981882379F58A813B
S11319E09B81892B59F18C819D81892B39F18C81C3
S11319F09D81FC0114821582168217828C819D813F
S1131A00FC0110821182128213828C819D810496C2
S1131A104E815F812A813B81B9010E947A118983B9
S1131A208981882369F48C819D814E815F812A811B
S1131A303B81B9010E94FE12898302C08FEF898322
S1131A40898127960FB6F894DEBF0FBECDBFDF9114
S1131A50CF910895CF93DF93CDB7DEB7EB970FB651
S1131A60F894DEBF0FBECDBF9FAB8EAB79AF68AF2E
S1131A705BAF4AAF84E1EFECF1E0DE011296019036
S1131A800D928A95E1F780E2E3EEF1E0DE015696ED
S1131A9001900D928A95E1F78AAD9BAD0E94BF0D2E
S1131AA089838981882309F05EC088AD99AD892B2B
S1131AB009F459C08AAD9BADFC0183858330B1F52F
S1131AC088AD99ADFC018381882F90E0880F991F20
S1131AD0880F991F9E012F5F3F4F820F931F01961E
S1131AE0FC01208131814281538188AD99ADFC0193
S1131AF08281882F90E0880F991F880F991FBE015B
S1131B006F5F7F4F860F971F4596FC0180819181FF
S1131B10A281B381820F931FA41FB51F2EA93FA9D1
S1131B20F90180839183A283B3831FC088AD99ADEB
S1131B30FC018381882F90E0880F991F880F991FDB
S1131B409E012F5F3F4F820F931F0196FC018081FE
S1131B509181A281B3812EA93FA9F9018083918348
S1131B60A283B38302C08FEF89838981EB960FB67A
S1131B70F894DEBF0FBECDBFDF91CF910895CF9310
S1131B80DF9300D01F92CDB7DEB79B838A838A810F
S1131B909B81892BA9F08A819B81FC018581968197
S1131BA0892B71F08A819B81FC0187819085892B27
S1131BB039F08A819B81FC0181859285892B19F4F6
S1131BC08FEF898301C0198289810F900F900F9044
S1131BD0DF91CF9108950F931F93CF93DF93CDB7E8
S1131BE0DEB72E970FB6F894DEBF0FBECDBF9E832F
S1131BF08D8378876F835A8749870B871C872D8746
S1131C003E8781E090E0A0E0B0E089839A83AB83D3
S1131C10BC8330C089819A81880F991F01972F81D5
S1131C203885820F931F29813A814D815E81240F6B
S1131C30351FF9012081FC01208389819A81880F55
S1131C40991F2F813885820F931F29813A814985F5
S1131C505A85240F351FF9012081FC0120838981D5
S1131C609A81AB81BC810196A11DB11D89839A83A0
S1131C70AB83BC8329813A814B815C818B859C85B4
S1131C80AD85BE85281739074A075B0718F200009F
S1131C902E960FB6F894DEBF0FBECDBFDF91CF9165
S1131CA01F910F9108950F931F93CF93DF93CDB797
S1131CB0DEB76C970FB6F894DEBF0FBECDBF9C8F16
S1131CC08B8F29E1CE010296FC01322F11923A95B5
S1131CD0E9F72B8D3C8DCE010296890129E130E094
S1131CE040E050E0BC0188E80E94200A8983898191
S1131CF0882309F0C4C08B81882F90E0382F2227D5
S1131D008A81882F90E0282B392B8B8D9C8DFC01A8
S1131D10358724878D81882F90E0382F22278C8166
S1131D20882F90E0822B932B9C018B8D9C8DFC0142
S1131D30378726878F81882F90E0382F22278E813E
S1131D40882F90E0822B932B9C018B8D9C8DFC0122
S1131D50318B208B8985882F90E0382F2227888526
S1131D60882F90E0282B392B8B8D9C8DFC01338B95
S1131D70228B8B85882F90E0382F22278A85882F05
S1131D8090E0822B932B9C018B8D9C8DFC01358BD9
S1131D90248B8D85882F90E0382F22278C85882FDF
S1131DA090E0822B932B9C018B8D9C8DFC01378BB7
S1131DB0268B8F85882F90E0382F22278E85882FB9
S1131DC090E0822B932B9C018B8D9C8DFC01318F99
S1131DD0208F8989882F90E0382F22278889882F9F
S1131DE090E0822B932B9C018B8D9C8DFC01338F77
S1131DF0228F8B89882F90E0382F22278A89882F79
S1131E0090E0822B932B9C018B8D9C8DFC01358F54
S1131E10248F8D89882F90E0382F22278C89882F52
S1131E2090E0822B932B9C018B8D9C8DFC01378F32
S1131E30268F8F89882F90E0382F22278E89882F2C
S1131E4090E0822B932B9C018B8D9C8DFC0131A304
S1131E5020A3898D882F90E0382F2227888D882F02
S1131E6090E0822B932B9C018B8D9C8DFC0133A3E2
S1131E7022A38A8D282F8B8D9C8DFC0124A389811C
S1131E806C960FB6F894DEBF0FBECDBFDF91CF9135
S1131E901F910F9108950F931F93CF93DF93CDB7A5
S1131EA0DEB72A970FB6F894DEBF0FBECDBF8E8380
S1131EB078876F835A8749871A821B8284EF8C83C1
S1131EC085EF8D838F819885892B09F480C02985BE
S1131ED03A85CE010296890122E030E040E050E0EC
S1131EE0BC0184EF0E94200A89838981882309F038
S1131EF070C089859A850E94660B898389818823AD
S1131F0009F067C02F813885CE010296B9010E947D
S1131F10F50F8B81282F2F718F819885FC01828189
S1131F20882F90E0880F991F82959295907F98272B
S1131F30807F9827822B8B838B81282F237E8F8110
S1131F409885FC018481882F90E0880F991F880F61
S1131F50991F8C71822B8B838B81282F2E7F8F81ED
S1131F609885FC0185818170822B8B8329853A8534
S1131F70BE016E5F7F4FCE010496890122E030E0FE
S1131F8040E050E00E94810A89838981882309F511
S1131F908E818823F1F089859A852E81FC0123871F
S1131FA08A81982F9C7F8E818370892B8A832985CF
S1131FB03A85BE016E5F7F4FCE010496890121E010
S1131FC030E040E050E00E94810A898302C08FEF34
S1131FD0898389812A960FB6F894DEBF0FBECDBFE0
S1131FE0DF91CF911F910F910895CF93DF9300D08C
S1131FF000D0CDB7DEB79A8389837C836B838B81D2
S11320009C81FC018381882F90E08230910509F442
S11320103EC0833091052CF4009759F0019701F1EB
S11320207BC08330910509F449C0049709F45DC06D
S113203073C089819A81FC0180818F718062282F0D
S113204089819A81FC01208389819A81FC018081A4
S1132050837E8460282F89819A81FC0120835CC05F
S113206089819A81FC0180818F718062282F898106
S11320709A81FC01208389819A81FC018081837E7D
S11320808860282F89819A81FC01208345C0898139
S11320909A81FC0180818F718062282F89819A81C5
S11320A0FC01208389819A81FC018081837E8C607C
S11320B0282F89819A81FC0120832EC089819A81ED
S11320C0FC0180818F718062282F89819A81FC01B3
S11320D0208389819A81FC018081837E8061282FFD
S11320E089819A81FC01208317C089819A81FC012E
S11320F080818F718064282F89819A81FC012083DB
S113210089819A81FC018081837E8461282F898161
S11321109A81FC012083000000000F900F900F9023
S11321200F90DF91CF910895CF93DF93CDB7DEB7B2
S113213061970FB6F894DEBF0FBECDBF9F878E8721
S1132140798B688B8E859F85FC018081882F90E038
S1132150A0E0B0E0072E7CE0880F991FAA1FBB1FE8
S11321607A95D1F7702D89839A83AB83BC838E854E
S11321709F850196FC018081882F90E0A0E0B0E06B
S1132180880F991FAA1FBB1F880F991FAA1FBB1F67
S1132190880F991FAA1FBB1F880F991FAA1FBB1F57
S11321A08D839E83AF83B8878E859F850296FC01BD
S11321B0808182958F70882F90E0A0E0B0E08987BD
S11321C09A87AB87BC8729813A814B815C818D8159
S11321D09E81AF81B885282B392B4A2B5B2B8985AF
S11321E09A85AB85BC85822B932BA42BB52B288990
S11321F03989F90184839583A683B7838E859F8566
S11322000396FC018081882F90E0A0E0B0E0072EC7
S11322107CE0880F991FAA1FBB1F7A95D1F7702DF8
S113222089839A83AB83BC838E859F850496FC0146
S11322308081882F90E0A0E0B0E0880F991FAA1F4A
S1132240BB1F880F991FAA1FBB1F880F991FAA1FA6
S1132250BB1F880F991FAA1FBB1F8D839E83AF834B
S1132260B8878E859F850596FC01808182958F7045
S1132270882F90E0A0E0B0E089879A87AB87BC877D
S113228029813A814B815C818D819E81AF81B885A2
S1132290282B392B4A2B5B2B89859A85AB85BC85EA
S11322A0822B932BA42BB52B28893989F9018083A0
S11322B09183A283B38388899989FC018481958160
S11322C0A681B7819C01AD0188899989FC0180812F
S11322D09181A281B381BC01CD010E949B158D87A0
S11322E08D8561960FB6F894DEBF0FBECDBFDF912A
S11322F0CF9108958F929F92AF92BF92CF92DF9227
S1132300EF92FF92CF93DF93CDB7DEB763970FB60B
S1132310F894DEBF0FBECDBF9F878E87798B688B05
S11323205B8B4A8B198288899989FC018081918110
S1132330A281B381BC01CD010E94021EDC01CB014C
S113234020E030E040E856E4BC01CD010E94581D75
S1132350DC01CB016C017D018A899B89FC018485A8
S11323609585CC01A0E0B0E0BC01CD010E94001E27
S1132370DC01CB0120E030E040E854E4BC01CD01B5
S11323800E94581DDC01CB019C01AD01C701B601BF
S11323900E94E61CDC01CB016C017D018A899B89CA
S11323A0FC0186859785092E000CAA0BBB0BBC018A
S11323B0CD010E94021EDC01CB019C01AD01C701CD
S11323C0B6010E94B71EDC01CB018E839F83A887D0
S11323D0B98788899989FC0180819181A281B3811F
S11323E0BC01CD010E94021EDC01CB0120E030E0E3
S11323F040E058E4BC01CD010E94581DDC01CB0132
S11324006C017D018A899B89FC0184859585CC01B9
S1132410A0E0B0E0BC01CD010E94001EDC01CB01B4
S113242020E030E040E056E4BC01CD010E94581D9C
S1132430DC01CB019C01AD01C701B6010E94E61C81
S1132440DC01CB016C017D0188899989FC018081C3
S11324509181A281B381BC01CD010E94021EDC01E5
S1132460CB0120E030E040E058E4BC01CD010E9403
S1132470581DDC01CB014C015D018A899B89FC015B
S113248084859585CC01A0E0B0E0BC01CD010E941B
S1132490001EDC01CB0120E030E040E056E4BC014A
S11324A0CD010E94581DDC01CB019C01AD01C50189
S11324B0B4010E94E61CDC01CB019C01AD01C70103
S11324C0B6010E94B71EDC01CB016C017D018A8933
S11324D09B89FC0180899189092E000CAA0BBB0BF6
S11324E0BC01CD010E94021EDC01CB019C01AD01A7
S11324F0C701B6010E94B71EDC01CB018A879B8706
S1132500AC87BD872A853B854C855D856E817F813F
S1132510888599850E94E71CDC01CB01BC01CD01B3
S11325200E94CA1DDC01CB012A893B89F90185A3DC
S113253096A3A7A3B0A72A853B854C855D856E81AC
S11325407F81888599850E94E71CDC01CB0120E00E
S113255030E040EA55E4BC01CD010E94581DDC0185
S1132560CB018A839B83AC83BD8320E030E040E2CF
S113257052EC6A817B818C819D810E94531D88234A
S113258054F480E090E0A0E2B2EC8A839B83AC83B5
S1132590BD8381E0898320E030E04AEA52E46A8125
S11325A07B818C819D810E94B21E181654F480E0B8
S11325B090E0AAEAB2E48A839B83AC83BD8382E081
S11325C089832E853F858A819B81AC81BD81F901F8
S11325D080839183A283B383898163960FB6F89431
S11325E0DEBF0FBECDBFDF91CF91FF90EF90DF90A4
S11325F0CF90BF90AF909F908F900895CF92DF922D
S1132600EF92FF92CF93DF93CDB7DEB763970FB608
S1132610F894DEBF0FBECDBF9F878E87798B688B02
S11326205B8B4A8B19821A821B821C821D828A89C7
S11326309B89FC0185A196A1A7A1B0A5BC01CD01F0
S11326400E94021EDC01CB0120E030E040E050E4B7
S1132650BC01CD010E94581DDC01CB0120E030E01B
S11326604AE757E4BC01CD010E94E61CDC01CB0122
S11326708E839F83A887B9872E813F81488559859A
S11326806E817F81888599850E94B71EDC01CB010C
S11326906C017D018A899B89FC01848D958D092EAD
S11326A0000CAA0BBB0BBC01CD010E94021EDC0175
S11326B0CB019C01AD01C701B6010E94B71EDC012C
S11326C0CB0120E030E040E057E4BC01CD010E94A2
S11326D0581DDC01CB018A879B87AC87BD878A891B
S11326E09B89FC01828D938D092E000CAA0BBB0BD8
S11326F0BC01CD010E94021EDC01CB012E813F8171
S113270048855985BC01CD010E94B71EDC01CB016F
S11327109C01AD01BC01CD010E94E71CDC01CB0191
S11327209C01AD016A857B858C859D850E94E71C93
S1132730DC01CB018A879B87AC87BD8720E030E032
S113274040E850E46A857B858C859D850E94581DF0
S1132750DC01CB016C017D018A899B89FC01808DA0
S1132760918D092E000CAA0BBB0BBC01CD010E945C
S1132770021EDC01CB0120E030E040E857E4BC015C
S1132780CD010E94B71EDC01CB019C01AD01C70144
S1132790B6010E94E71CDC01CB018A879B87AC87CA
S11327A0BD878A899B89FC0186899789092E000C3B
S11327B0AA0BBB0BBC01CD010E94021EDC01CB01A4
S11327C02E813F8148855985BC01CD010E94B71EE9
S11327D0DC01CB012E813F8148855985BC01CD01A7
S11327E00E94B71EDC01CB0120E030E040E059E458
S11327F0BC01CD010E94581DDC01CB016C017D019F
S11328008A899B89FC0184899589092E000CAA0B6D
S1132810BB0BBC01CD010E94021EDC01CB012E8149
S11328203F8148855985BC01CD010E94B71EDC015A
S1132830CB019C01AD01C701B6010E94E71CDC017C
S1132840CB0120E030E040E059E4BC01CD010E941E
S1132850581DDC01CB018E839F83A887B98720E0B4
S113286030E040E057E46E817F81888599850E943D
S1132870581DDC01CB0120E030E040E85FE3BC01FF
S1132880CD010E94E71CDC01CB016C017D018A892A
S11328909B89FC0182899389CC01A0E0B0E0BC0152
S11328A0CD010E94001EDC01CB019C01AD01C701DA
S11328B0B6010E94B71EDC01CB018E839F83A887DB
S11328C0B98720E030E0A9016E817F8188859985F0
S11328D00E94531D882364F020E030E0A9016E813A
S11328E07F81888599850E94B21E18160CF015C147
S11328F088899989FC0184819581A681B781BC016D
S1132900CD010E94001EDC01CB019C01AD0160E001
S113291070E080E899E40E94E61CDC01CB018A8324
S11329209B83AC83BD8320E030E040E855E46A85B6
S11329307B858C859D850E94581DDC01CB019C0103
S1132940AD016A817B818C819D810E94E61CDC0142
S1132950CB0120E030E543EC55E4BC01CD010E94FD
S1132960B71EDC01CB012E813F8148855985BC010E
S1132970CD010E94581DDC01CB018A839B83AC836B
S1132980BD838A899B89FC0182A193A1092E000C35
S1132990AA0BBB0BBC01CD010E94021EDC01CB01C2
S11329A02A813B814C815D81BC01CD010E94B71E0F
S11329B0DC01CB012A813B814C815D81BC01CD01CD
S11329C00E94B71EDC01CB0120E030E040E05FE470
S11329D0BC01CD010E94581DDC01CB018E839F8375
S11329E0A887B9878A899B89FC0180A191A1092EB6
S11329F0000CAA0BBB0BBC01CD010E94021EDC0122
S1132A00CB012A813B814C815D81BC01CD010E94B7
S1132A10B71EDC01CB0120E030E040E057E4BC010C
S1132A20CD010E94581DDC01CB018A879B87AC87AE
S1132A30BD872A853B854C855D856E817F81888530
S1132A4099850E94E71CDC01CB016C017D018A8918
S1132A509B89FC01868D978D092E000CAA0BBB0B5C
S1132A60BC01CD010E94021EDC01CB019C01AD0121
S1132A70C701B6010E94E71CDC01CB0120E030E075
S1132A8040E851E4BC01CD010E94581DDC01CB019A
S1132A909C01AD016A817B818C819D810E94E71C30
S1132AA0DC01CB018A839B83AC83BD8320E030E6C9
S1132AB04AEE56E46A817B818C819D810E94531D7C
S1132AC0882354F480E090E6AAEEB6E48A839B83DC
S1132AD0AC83BD8383E0898320E038ED46ED57E481
S1132AE06A817B818C819D810E94B21E181654F4E8
S1132AF080E098EDA6EDB7E48A839B83AC83BD8325
S1132B0084E089832E853F858A819B81AC81BD8148
S1132B10F90180839183A283B383898163960FB67D
S1132B20F894DEBF0FBECDBFDF91CF91FF90EF9041
S1132B30DF90CF900895CF93DF93CDB7DEB7299779
S1132B400FB6F894DEBF0FBECDBF6A837B838C8340
S1132B509D832E833F834887598719828E819F8165
S1132B60A885B985BB234CF08E819F81A885B98542
S1132B70813F9F4FAF40B10594F08A819B81AC8126
S1132B80BD81BB2364F08A819B81AC81BD81813F7F
S1132B909F4FAF40B1051CF48AEF898343C08A81FB
S1132BA09B81AC81BD81BB234CF08A819B81AC812C
S1132BB0BD81813F9F4FAF40B10594F08E819F81CD
S1132BC0A885B985BB2364F08E819F81A885B985CA
S1132BD0813F9F4FAF40B1051CF48BEF898322C026
S1132BE08E819F81A885B985BB234CF08E819F81FE
S1132BF0A885B985813F9F4FAF40B10594F08A8184
S1132C009B81AC81BD81BB234CF08A819B81AC81CB
S1132C10BD81813F9F4FAF40B1051CF089EF89838F
S1132C2001C01982898129960FB6F894DEBF0FBEC0
S1132C30CDBFDF91CF9108950F931F93CF93DF936F
S1132C40CDB7DEB729970FB6F894DEBF0FBECDBF60
S1132C5089837B836A832C833D834E835F831987B7
S1132C60088788859985FC01808180936E022C8178
S1132C703D8170916E028A819B81AC016981872FAD
S1132C800E944D0629960FB6F894DEBF0FBECDBF45
S1132C90DF91CF911F910F9108950F931F93CF93BD
S1132CA0DF93CDB7DEB729970FB6F894DEBF0FBE1A
S1132CB0CDBF89837B836A832C833D834E835F836B
S1132CC01987088788859985FC01808180936E0225
S1132CD02C813D8170916E028A819B81AC01698156
S1132CE0872F0E940A0629960FB6F894DEBF0FBEFE
S1132CF0CDBFDF91CF911F910F910895CF93DF93B3
S1132D00CDB7DEB72A970FB6F894DEBF0FBECDBF9E
S1132D106D837E838F8398875A87498719821A82A5
S1132D201B821C820BC089819A81AB81BC81019674
S1132D30A11DB11D89839A83AB83BC8329813A8108
S1132D404B815C818D819E81AF81B88528173907BD
S1132D504A075B0740F300002A960FB6F894DEBFDB
S1132D600FBECDBFDF91CF9108950F931F93CF93E3
S1132D70DF93CDB7DEB72D970FB6F894DEBF0FBE45
S1132D80CDBF6C837D838E839F83598748873B8720
S1132D902A871D870C878FEF89832A853B85CE017F
S1132DA00296B9010E94150C898308C02A853B85C7
S1132DB0CE010296B9010E94150C89838A81813063
S1132DC0A9F32A853B858C859D85B9010E947D0CDC
S1132DD0898389812D960FB6F894DEBF0FBECDBFCF
S1132DE0DF91CF911F910F910895CF93DF93CDB7CA
S1132DF0DEB78EEE80936E028CE196E190933E03F3
S1132E0080933D038DE496E19093400380933F03C8
S1132E1081E0809339038EE692E090933B038093A4
S1132E203A038EE796E1909342038093410388E34B
S1132E3093E00E94E6098093610368E373E082E310
S1132E4093E00E948F0B809361031092360383E01A
S1132E508093350383E08093340368E373E082E373
S1132E6093E00E94FB0B8093610348E353E062E329
S1132E7073E083E00E945D0C8093610348E353E0B8
S1132E8062E373E08CE693E00E942A0D8093610371
S1132E9080916103DF91CF910895CF93DF931F92C7
S1132EA0CDB7DEB7898380917003882309F18981C6
S1132EB0882F90E08130910559F08230910571F0AE
S1132EC0892B09F015C080E793E00E94671810C0B1
S1132ED068E780E793E00E9495170AC080E793E0D3
S1132EE00E94671868E780E793E00E949517000046
S1132EF000000F90DF91CF910895CF93DF9300D01E
S1132F00CDB7DEB789836A838A810E946D0580E02C
S1132F100E94B40589810E94B4050E94A80600009D
S1132F200F900F90DF91CF910895CF93DF93CDB79A
S1132F30DEB727970FB6F894DEBF0FBECDBF9E83D2
S1132F408D836F836F8181E20E947D176F8180E0A2
S1132F500E947D176F818FE70E947D176F8182E247
S1132F600E947D176F8180E00E947D176F8187E04A
S1132F700E947D171A8219822FC08F810E946D05CD
S1132F8080E40E94B4051C821B821BC089819A8143
S1132F909C0122953295307F3227207F32278B8106
S1132FA09C81820F931F2D813E81820F931F019676
S1132FB0FC0180810E94B4058B819C8101969C83D5
S1132FC08B838B819C81409708F30E94A80689819A
S1132FD09A8101969A83898389819A8180349105A3
S1132FE060F28D819E81FC011082000027960FB64D
S1132FF0F894DEBF0FBECDBFDF91CF910895CF937C
S1133000DF93CDB7DEB781E00E94971A81E00E947A
S1133010BF1A80E00E94BF1A80E00E94971A8EEACD
S11330200E94490785ED0E94490780E80E944907EC
S113303088EA0E9449078FE70E94490783ED0E94AE
S1133040490780E00E94490780E40E9449078DE80F
S11330500E94490784E10E94490780E20E944907CF
S113306080E00E94490781EA0E94490788EC0E9497
S113307049078AED0E94490782E10E94490781E8D5
S11330800E9449078FEC0E94490789ED0E94490775
S113309081EF0E9449078BED0E94490780E40E945A
S11330A0490784EA0E94490786EA0E9449078FEA91
S11330B00E94490781E00E94971A81E00E94BF1A8A
S11330C081E0809370030000DF91CF910895CF9346
S11330D0DF9300D000D000D0CDB7DEB79E838D83C0
S11330E080E00E94BF1A80E00E94971A81E20E9449
S11330F0490780E00E9449078FE70E94490782E25E
S11331000E94490780E00E94490787E00E9449071E
S113311081E00E94971A1A82198227C01C821B829E
S11331201BC089819A819C0122953295307F322778
S1133130207F32278B819C81820F931F2D813E81BA
S1133140820F931F0196FC0180810E9449078B81A5
S11331509C8101969C838B838B819C81409708F38F
S113316089819A8101969A83898389819A8180349D
S11331709105A0F281E00E94BF1A8D819E81FC011D
S11331801082000026960FB6F894DEBF0FBECDBFA6
S1133190DF91CF910895CF93DF9300D000D0CDB7C6
S11331A0DEB79C838B831A8219820EC02B813C81EB
S11331B089819A81820F931F0196FC011082898173
S11331C09A8101969A83898389819A818115944091
S11331D068F38B819C8121E0FC01208300000F9027
S11331E00F900F900F90DF91CF9108950F931F933D
S11331F0CF93DF93CDB7DEB760970FB6F894DEBFF9
S11332000FBECDBF8B876C874D872E87188B0F879A
S113321019828E85882F90E08530910509F444C089
S11332208730910509F47FC0039709F0C0C0198263
S113323037C08B85282F30E08981882F90E0280FB4
S1133240391F8C85882F90E09695982F882797951D
S11332508795A901480F591F8D85882F90E09C01FF
S113326020523109C901880F991F280F391F8981FC
S1133270882F90E0820F931F8C539E4F9B838A83E9
S11332808A819B81FC0184918C832C818F85988910
S1133290840F951F0196FC01208389818F5F8983A8
S11332A08981833030F284C0198239C08B85282FFC
S11332B030E08981882F90E0280F391F8C85882F72
S11332C090E09695982F882797958795A901480FA0
S11332D0591F8D85882F90E09C0120523109C90126
S11332E0880F991F880F991F280F391F8981882FEC
S11332F090E0820F931F89579D4F9E838D838D810C
S11333009E81FC0184918F832F818F859889840FFE
S1133310951F0196FC01208389818F5F89838981B0
S1133320853020F245C019823DC08B85282F30E0BE
S11333308981882F90E0280F391F8C85882F90E091
S11333409695982F882797958795A901480F591F17
S11333508D85882F90E09C0120523109C901880F86
S1133360991F880F991F880F991FBC01621B730B4B
S11333709B018981882F90E0820F931F84599B4F72
S11333809987888788859985FC0184918A872A850D
S11333908F859889840F951F0196FC01208389816C
S11333A08F5F89838981873008F4BFCF01C0FFCF45
S11333B08F85988921E0FC012083000060960FB678
S11333C0F894DEBF0FBECDBFDF91CF911F910F9157
S11333D008950F931F93CF93DF93CDB7DEB728974C
S11333E00FB6F894DEBF0FBECDBF8A836B835D83B7
S11333F04C832E8318870F83198220C08981882FDC
S113340090E02C813D81820F931FFC0140818E81CD
S1133410882F90E00196982F8981989F902D1124F0
S11334208A81392F380F8F8198858C012E816B8189
S1133430832F0E94F61889818F5F89838981882F61
S113344090E02C813D81820F931FFC0180818823B1
S1133450A9F6000028960FB6F894DEBF0FBECDBFC4
S1133460DF91CF911F910F910895CF93DF93CDB743
S1133470DEB787E290E028E0FC01208384E290E05C
S113348027E0FC0120838AE290E020E8FC0120830D
S11334900000DF91CF910895CF93DF9300D0CDB793
S11334A0DEB789836A838A81882F90E0009719F0B8
S11334B00197D1F032C08981882349F488E290E0F1
S11334C028E230E0F9012081277FFC0120838981F3
S11334D0813021F585E290E025E230E0F901208198
S11334E02E7FFC0120831AC08981882349F488E255
S11334F090E028E230E0F90120812860FC0120837B
S11335008981813069F485E290E025E230E0F901B7
S113351020812160FC01208303C0FFCF000001C093
S1133520000000000F900F90DF91CF910895CF938A
S1133530DF931F92CDB7DEB789838981882F90E00E
S1133540009719F0019759F014C085E290E025E244
S113355030E0F90120812D7FFC0120830BC085E23E
S113356090E025E230E0F90120812260FC01208313
S113357001C0FFCF00000F90DF91CF910895CF934A
S1133580DF931F92CDB7DEB789838981882F90E0BE
S1133590009719F0019759F014C085E290E025E2F4
S11335A030E0F90120812B7FFC0120830BC085E2F0
S11335B090E025E230E0F90120812460FC012083C1
S11335C001C0FFCF00000F90DF91CF910895CF93FA
S11335D0DF9300D0CDB7DEB789836A838A818823DD
S11335E0A9F08BE290E02BE230E0F9012081622F18
S11335F02981422F50E021E030E002C0220F331F26
S11336004A95E2F7262BFC01208315C08BE290E05B
S11336102BE230E0F9012081622F2981422F50E012
S113362021E030E002C0220F331F4A95E2F72095D3
S11336302623FC01208300000F900F90DF91CF918F
S11336400895CF93DF931F92CDB7DEB78983698145
S113365087E00E94E71A00000F90DF91CF91089550
S11336600F93CF93DF93CDB7DEB70E94351A80E274
S11336709EE40E94660760E088E090E00E94CB0729
S11336800E94600500E023E043E061E080E00E94E6
S1133690B50660E081E00E944C1A61E081E00E947E
S11336A04C1A0E94FF170E94F5160000DF91CF917B
S11336B00F910895CF93DF93CDB7DEB70E94301BEF
S11336C08091D902813009F052C01092D90260E78A
S11336D072E083E092E00E94A9039923C4F160E7B9
S11336E072E080E192E00E94A903909372078093B4
S11336F0710780917107909172079923C4F18091A9
S11337007107909172070C9680599D4FFC0180813E
S1133710882F90E0C097880F991F9C01220F331FB8
S1133720220F331F280F391F809171079091720760
S11337300D9680599D4FFC018081882F90E0C097A1
S1133740820F931F90936B0380936A0310C060E70A
S113375072E089E192E00E94A903892B21F081E0C3
S11337608093D80204C080E792E00E941D048091F7
S11337706602853608F445C0109266020E94C509A7
S11337808823E9F58091660390916703A09168030B
S1133790B09169032B2F2F932A2F2F93292F2F9327
S11337A08F938CE192E0892F8F938CE192E08F9339
S11337B081E193E0892F8F9381E193E08F930E94BD
S11337C008248DB79EB708960FB6F894DEBF0FBED7
S11337D0CDBF82E693E00E94FC0882E693E00E945B
S11337E0B40882E693E00E946509882321F081E011
S11337F00E94211B06C080E00E94211B02C00E947F
S11338004C098091680290916902853F914030F0A3
S113381010926902109268020E94191C80916A0237
S11338208A3108F44DCF10926A0280E00E944D174D
S113383047CFCF93DF93CDB7DEB780910001882FB8
S113384090E0092E000CAA0BBB0B41E050E026E0EF
S113385030E0841B950B2817390708F4B1C0865A49
S11338609F4FFC010C94A1220E945C0482E080938F
S1133870000183E080937307A5C08BE0E1E2F2E0EE
S1133880ABE1B3E001900D928A95E1F78BE0ECE2B5
S1133890F2E0A7E2B3E001900D928A95E1F76BE1C3
S11338A073E08BE193E00E94680482E0809300015E
S11338B084E08093730786C085E0E7E3F2E0AAED35
S11338C0B2E001900D928A95E1F785E0E7E3F2E03A
S11338D0A0EEB2E001900D928A95E1F788E0ECE366
S11338E0F2E0A4EFB2E001900D928A95E1F74AED7F
S11338F052E06AED72E08AED92E00E949B0482E05D
S11339008093000185E0809373075CC08EE0E4E45B
S1133910F2E0A6EEB2E001900D928A95E1F78AED0D
S113392092E00E94EC0482E08093000186E08093A0
S1133930730748C089E0E2E5F2E0A7E0B3E0019054
S11339400D928A95E1F78AED92E00E94400582E0AB
S11339508093000187E08093730734C08BE0EBE52C
S1133960F2E0ACEFB2E001900D928A95E1F76AEDD6
S113397072E08AED92E00E940C0580E792E00E94DA
S11339801D0487E0809300011DC08091D802882324
S113399049F010926F021092D802809173078093BD
S11339A000010FC080916F0291E0980F90936F0215
S11339B08B3038F010926F0281E08093000101C0D7
S11339C0FFCF00000000DF91CF9108955058BB272E
S11339D0AA270E94FE1C0C94781E0E946A1E38F0CE
S11339E00E94711E20F039F49F3F19F426F40C94C0
S11339F0671E0EF4E095E7FB0C94611EE92F0E940C
S1133A00891E58F3BA17620773078407950720F0D5
S1133A1079F4A6F50C94AB1E0EF4E0950B2EBA2F98
S1133A20A02D0B01B90190010C01CA01A0011124C0
S1133A30FF27591B99F0593F50F4503E68F11A166C
S1133A40F040A22F232F342F4427585FF3CF4695FD
S1133A5037952795A795F0405395C9F77EF41F161F
S1133A60BA0B620B730B840BBAF09150A1F0FF0FE9
S1133A70BB1F661F771F881FC2F70EC0BA0F621FD5
S1133A80731F841F48F4879577956795B795F795C5
S1133A909E3F08F0B0CF9395880F08F09927EE0F5A
S1133AA09795879508950E943D1E08F481E0089536
S1133AB00E946C1D0C94781E0E94711E58F00E9486
S1133AC06A1E40F029F45F3F29F00C94611E5111E5
S1133AD00C94AC1E0C94671E0E94891E68F39923F3
S1133AE0B1F3552391F3951B550BBB27AA276217F6
S1133AF07307840738F09F5F5F4F220F331F441F03
S1133B00AA1FA9F335D00E2E3AF0E0E832D0915036
S1133B105040E695001CCAF72BD0FE2F29D0660F23
S1133B20771F881FBB1F261737074807AB07B0E866
S1133B3009F0BB0B802DBF01FF2793585F4F3AF06C
S1133B409E3F510578F00C94611E0C94AC1E5F3FAF
S1133B50E4F3983ED4F3869577956795B795F795F2
S1133B609F5FC9F7880F911D9695879597F90895DA
S1133B70E1E0660F771F881FBB1F62177307840776
S1133B80BA0720F0621B730B840BBA0BEE1F88F785
S1133B90E09508950E94D11D6894B1110C94AC1E57
S1133BA008950E94911E88F09F5798F0B92F992785
S1133BB0B751B0F0E1F0660F771F881F991F1AF014
S1133BC0BA95C9F714C0B13091F00E94AB1EB1E0B0
S1133BD008950C94AB1E672F782F8827B85F39F0AF
S1133BE0B93FCCF3869577956795B395D9F73EF4AD
S1133BF090958095709561957F4F8F4F9F4F089555
S1133C00E89409C097FB3EF4909580957095619572
S1133C107F4F8F4F9F4F9923A9F0F92F96E9BB2728
S1133C209395F695879577956795B795F111F8CFA4
S1133C30FAF4BB0F11F460FF1BC06F5F7F4F8F4F0F
S1133C409F4F16C0882311F096E911C0772321F005
S1133C509EE8872F762F05C0662371F096E8862F9D
S1133C6070E060E02AF09A95660F771F881FDAF7F4
S1133C70880F9695879597F90895990F0008550F21
S1133C80AA0BE0E8FEEF16161706E807F907C0F0DE
S1133C9012161306E407F50798F0621B730B840BE6
S1133CA0950B39F40A2661F0232B242B252B21F4C0
S1133CB008950A2609F4A140A6958FEF811D811D60
S1133CC0089597F99F6780E870E060E008959FEF9A
S1133CD080EC089500240A9416161706180609069F
S1133CE0089500240A94121613061406050608956E
S1133CF0092E0394000C11F4882352F0BB0F40F4F6
S1133D00BF2B11F460FF04C06F5F7F4F8F4F9F4F35
S1133D10089557FD9058440F551F59F05F3F71F0B7
S1133D204795880F97FB991F61F09F3F79F087951E
S1133D300895121613061406551FF2CF4695F1DFA7
S1133D4008C0161617061806991FF1CF8695710537
S1133D50610508940895E894BB2766277727CB016B
S1133D6097F908950E943D1E08F48FEF08950E946C
S1133D70CA1E0C94781E0E946A1E38F00E94711E9E
S1133D8020F0952311F00C94611E0C94671E1124ED
S1133D900C94AC1E0E94891E70F3959FC1F3950F7D
S1133DA050E0551F629FF001729FBB27F00DB11DBB
S1133DB0639FAA27F00DB11DAA1F649F6627B00D4B
S1133DC0A11D661F829F2227B00DA11D621F739F34
S1133DD0B00DA11D621F839FA00D611D221F749F42
S1133DE03327A00D611D231F849F600D211D822F89
S1133DF0762F6A2F11249F5750409AF0F1F08823B0
S1133E004AF0EE0FFF1FBB1F661F771F881F9150DC
S1133E105040A9F79E3F510580F00C94611E0C940C
S1133E20AC1E5F3FE4F3983ED4F38695779567958F
S1133E30B795F795E7959F5FC1F7FE2B880F911D06
S1133E409695879597F90895A0E1B0E0EAE2FFE13D
S1133E500C94A7227C011B016A01FC0117821682C3
S1133E60838181FF44C39E012F5F3F4F3901F701D6
S1133E709381F10193FD859193FF81911F01882323
S1133E8009F431C3853239F493FD859193FF81910F
S1133E901F01853239F4B70190E00E94CC2356010A
S1133EA06501E5CF10E0512C912CFFE1F915D8F014
S1133EB08B3279F038F4803279F08332A1F4F92D21
S1133EC0F0612EC08D3261F0803369F4292D2160B8
S1133ED02DC0392D3260932E892D8460982E2AC0EE
S1133EE0E92DE86015C097FC2DC020ED280F2A307D
S1133EF088F496FE06C03AE0139F200D1124122F79
S1133F0019C08AE0589E200D1124522EE92DE0623A
S1133F109E2E10C08E3231F496FCE5C2F92DF06469
S1133F209F2E08C08C3621F4292D2068922E02C0C1
S1133F30883641F4F10193FD859193FF81911F012E
S1133F408111B3CF9BEB980F933020F4992D90619E
S1133F50805E07C09BE9980F933008F066C1992DE5
S1133F609F7E96FF16E09F73992E853619F4906410
S1133F70992E08C0863621F4392F3068932E02C05A
S1133F801111115097FE07C01C3350F4442443947C
S1133F90410E27E00BC0183038F027E017E005C0C9
S1133FA027E09CE3492E02C0212F412C560184E0D6
S1133FB0A80EB11CF6016081718182819381042D68
S1133FC0A3010E94DE226C01F981FC87F0FF02C08C
S1133FD0F3FF06C091FC06C092FE06C000E205C0D5
S1133FE00DE203C00BE201C000E08C858C7019F077
S1133FF001115AC29BC297FE10C04C0CFC85F4FF01
S113400004C08A81813309F44A94141474F528E0B5
S1134010241578F588E0482E2CC096FC2AC0812F00
S113402090E08C159D059CF03CEFC3163FEFD30642
S113403074F0892D8068982E0AC0E2E0F0E0EC0F5D
S1134040FD1FE10FF11D8081803319F4115011110E
S1134050F4CF97FE0EC044244394410E812F90E088
S1134060C816D9062CF41C1904C04424439401C076
S113407010E097FE06C01C141D0434F4C60101961A
S113408005C085E090E002C081E090E00111019656
S1134090112331F0212F30E02F5F3F4F820F931F08
S11340A0252D30E08217930714F4581A01C0512CBF
S11340B0892D897049F4552039F0B70180E290E0E8
S11340C00E94CC235A94F7CF002329F0B701802F04
S11340D090E00E94CC2393FC09C0552039F0B7012D
S11340E080E390E00E94CC235A94F7CF97FE4CC013
S11340F04601D7FE02C0812C912CC601881999096A
S1134100F301E80FF91FFE87ED87960124193109A1
S1134110388B2F87012F10E01195019511093FEF7E
S11341208316930629F4B7018EE290E00E94CC2313
S1134130C814D9044CF08F8598898815990524F4FE
S1134140ED85FE85818101C080E3F1E08F1A91083D
S11341502D853E852F5F3F4F3E872D878016910624
S11341602CF0B70190E00E94CC23D9CFC814D90415
S113417041F49A81963320F4953319F43C8534FF45
S113418081E3B70190E04EC08A81813319F09C85A8
S11341909F7E9C87B70190E00E94CC23111105C03B
S11341A094FC18C085E690E017C0B7018EE290E059
S11341B00E94CC231E5F82E001E0080FF301E80FA8
S11341C0F11D8081B70190E00E94CC23802F011360
S11341D0F3CFE6CF85E490E0B7010E94CC23D7FC6F
S11341E006C0C114D10441F4EC85E4FF05C0D194A8
S11341F0C194D1088DE201C08BE2B70190E00E9426
S1134200CC2380E32AE0C216D1042CF08F5FFAE0BD
S1134210CF1AD108F7CFB70190E00E94CC23B701A1
S1134220C601C0960E94CC2354C1833631F0833733
S113423079F0833509F056C020C0560132E0A30E50
S1134240B11CF6018081898301E010E0630112C092
S11342505601F2E0AF0EB11CF601C080D18096FE8B
S113426003C0612F70E002C06FEF7FEFC6010E94B0
S1134270C1238C01F92DFF7714C0560122E0A20E50
S1134280B11CF601C080D18096FE03C0612F70E09E
S113429002C06FEF7FEFC6010E94B6238C01F92D97
S11342A0F0689F2EF3FD1AC0852D90E008171907BA
S11342B0A8F4B70180E290E00E94CC235A94F4CF92
S11342C0F60197FC859197FE81916F01B70190E00B
S11342D00E94CC2351105A94015011090115110563
S11342E079F7F7C0843611F0893661F5560197FEE7
S11342F009C024E0A20EB11CF601608171818281A3
S113430093810AC0F2E0AF0EB11CF60160817181A5
S1134310072E000C880B990BF92DFF769F2E97FF23
S113432009C090958095709561957F4F8F4F9F4FF1
S1134330F0689F2E2AE030E0A3010E942A24C82EB0
S1134340C6183FC0092D853721F40F7E2AE030E0DE
S11343501DC0097F8F3691F018F4883559F0C3C019
S1134360803719F0883711F0BEC0006104FF09C01E
S1134370046007C094FE08C0066006C028E030E070
S113438005C020E130E002C020E132E0560107FF21
S113439009C084E0A80EB11CF6016081718182819C
S11343A0938108C0F2E0AF0EB11CF6016081718107
S11343B080E090E0A3010E942A24C82EC6180F773B
S11343C0902E96FE0BC0092D0E7FC11650F494FE5C
S11343D00AC092FC08C0092D0E7E05C0DC2C092DF4
S11343E003C0DC2C01C0D12E04FF0DC0FE01EC0D76
S11343F0F11D8081803311F4097E09C002FF06C0DB
S1134400D394D39404C0802F867809F0D39403FD09
S113441011C000FF06C01C2DD51480F4150D1D1904
S11344200DC0D51458F4B70180E290E00E94CC236B
S1134430D394F7CFD51410F45D1801C0512C04FFA8
S113444010C0B70180E390E00E94CC2302FF17C0A4
S113445001FD03C088E790E002C088E590E0B70161
S11344600CC0802F867859F001FF02C08BE201C096
S113447080E207FD8DE2B70190E00E94CC23C116D3
S113448038F4B70180E390E00E94CC231150F7CFB9
S1134490CA94F301EC0DF11D8081B70190E00E94F4
S11344A0CC23C110F5CF15C0F4E0F51560F584E018
S11344B0581A93FE1FC0011127C02C8523FF2AC060
S11344C002EC10E0392D3071932EF80184918111A2
S11344D024C0552009F4E4CCB70180E290E00E94A6
S11344E0CC235A94F6CFF7018681978126C08FEFAB
S11344F09FEF23C0B70180E290E00E94CC235A943E
S11345005110F8CFD8CF512CB701802F90E00E94E2
S1134510CC23D3CF06EC10E0D5CF91108052B70155
S113452090E00E94CC230F5F1F4FCFCF23E02515CF
S113453010F483E0BDCF512CC0CF6096E2E10C941F
S1134540C322EE0FFF1F0590F491E02D09942F92E2
S11345503F924F925F926F927F928F929F92AF920F
S1134560BF92CF92DF92EF92FF920F931F93CF935C
S1134570DF93CDB7DEB7CA1BDB0B0FB6F894DEBFF3
S11345800FBECDBF09942A88398848885F846E8419
S11345907D848C849B84AA84B984C884DF80EE8063
S11345A0FD800C811B81AA81B981CE0FD11D0FB66C
S11345B0F894DEBF0FBECDBFED010895283008F09A
S11345C027E03327DA01990F311D87FD91600096AA
S11345D06105710539F432602E5F3D9330E32A950D
S11345E0E1F708959F3F30F080387105610509F0C7
S11345F03C5F3C5F3D93913008F08068911DDF93F0
S1134600CF931F930F93FF92EF92192F987F969554
S1134610E92F96959695E90FFF27EC5DFE4F9927B4
S11346203327EE24FF24A701E7010590089407949B
S113463028F4360FE71EF81E491F511D660F771F19
S1134640881F991F0694A1F70590079428F4E70E94
S1134650F81E491F561FC11D770F881F991F661F1B
S11346600694A1F70590079428F4F80E491F561FE5
S1134670C71FD11D880F991F661F771F0694A1F7C6
S11346800590079420F4490F561FC71FD81F990F90
S1134690661F771F881F0694A9F7849110951770D9
S11346A041F0D695C79557954795F794E7941A9591
S11346B0C1F7EAECF0E06894159015913591659195
S11346C0959105907FE27395E118F10A430B560B1F
S11346D0C90BD009C0F7E10CF11E431F561FC91FB7
S11346E0D01D7EF4703311F48A95E6CFE89401501E
S11346F030F0080F0AF40027021708F4202F23953E
S1134700022F7A3328F079E37D932A95E9F710C0D4
S11347107D932A9589F6069497956795379517950D
S11347201794E118F10A430B560BC90BD00998F002
S113473023957E9173957A3308F070E37C9320136C
S1134740B8F77E9170617D9330F0839571E37D932A
S113475070E32A95E1F71124EF90FF900F911F91D8
S1134760CF91DF91992787FD90950895FC010590DD
S1134770615070400110D8F7809590958E0F9F1F5F
S11347800895FC016150704001900110D8F78095A4
S113479090958E0F9F1F08950F931F93CF93DF93D0
S11347A0FB01238121FD03C08FEF9FEF2CC022FF6B
S11347B016C046815781248135814217530744F43A
S11347C0A081B1819D012F5F3F4F318320838C9362
S11347D0268137812F5F3F4F3783268314C08B0197
S11347E0EC01FB010084F185E02D0995892BE1F6AC
S11347F0D80116968D919C911797019617969C93C4
S11348008E931697CE01DF91CF911F910F9108954A
S1134810AEE0B0E0EEE0F4E20C94B5220D891E891E
S113482086E08C831A8309838FEF9FE79E838D83B1
S1134830AE01475E5F4F6F89788DCE0101960E946D
S1134840241FEF81F885E00FF11F10822E96E4E01B
S11348500C94D122FA01AA27283051F1203181F198
S1134860E8946F936E7F6E5F7F4F8F4F9F4FAF4F74
S1134870B1E03ED0B4E03CD0670F781F891F9A1F87
S1134880A11D680F791F8A1F911DA11D6A0F711D3B
S1134890811D911DA11D20D009F468943F912AE047
S11348A0269F11243019305D3193DEF6CF0108952F
S11348B0462F4770405D4193B3E00FD0C9F7F6CF60
S11348C0462F4F70405D4A3318F0495D31FD405228
S11348D0419302D0A9F7EACFB4E0A69597958795BE
S11348E077956795BA95C9F700976105710508959D
S11348F09B01AC010A2E0694579547953795279549
S1134900BA95C9F7620F731F841F951FA01D0895E0
S1074910F894FFCF45
S11349140141540D0A0041542B43574A41503D0070
S11349242C000D0A0041542B4D51545455534552F7
S11349344346473D302C312C002C302C302C004184
S1134944542B4D515454434F4E4E3D302C002C3176
S11349543838332C300D0A0041542B4D51545450E3
S113496455423D302C002C312C300D0A0041542B7F
S11349744D5154545355423D302C002C310D0A00F2
S1134984256400536574706F696E743A00252E357E
S1134994660054656D70657261747572652028646F
S11349A4656743293A0053656E736F7220657272AA
S11349B46F722E2020202020002020202020202060
S11349C420202020202020202020202020202020DF
S11349D420202020202020004F4E004F4646007CFB
S11349E41500004C1D0000EC2C00002C4C00007C35
S11349F4920000F401000024F4000048E80100904F
S1134A04D0030020A1070040420F0080841E000050
S1134A14093D002B4D5154545355425245435600BD
S1134A24534554504F494E54004F4B00252E356680
S1134A3400646C696E6B2D3539313400636A7667B2
S1134A44753839363238006D7174740045535038F2
S1134A54323636003139322E3136382E302E31305A
S1134A643200534554504F494E540054454D50530D
S1094A74454E534F5200B1
S9030000FC
